{"abi":[{"inputs":[],"stateMutability":"payable","type":"constructor"},{"inputs":[],"name":"FunctionIdsNotInitialised","type":"error"},{"inputs":[],"name":"GatewayNotInitialised","type":"error"},{"inputs":[],"name":"HeaderNotInitialised","type":"error"},{"inputs":[{"internalType":"address","name":"","type":"address"}],"name":"NotFromSuccinctGateway","type":"error"},{"inputs":[],"name":"TrustedHeaderNotFound","type":"error"},{"anonymous":false,"inputs":[{"indexed":false,"internalType":"address","name":"previousAdmin","type":"address"},{"indexed":false,"internalType":"address","name":"newAdmin","type":"address"}],"name":"AdminChanged","type":"event"},{"anonymous":false,"inputs":[{"indexed":true,"internalType":"address","name":"beacon","type":"address"}],"name":"BeaconUpgraded","type":"event"},{"anonymous":false,"inputs":[{"indexed":false,"internalType":"bytes32","name":"headerHash","type":"bytes32"}],"name":"HeadUpdate","type":"event"},{"anonymous":false,"inputs":[{"indexed":false,"internalType":"uint8","name":"version","type":"uint8"}],"name":"Initialized","type":"event"},{"anonymous":false,"inputs":[{"indexed":true,"internalType":"address","name":"previousOwner","type":"address"},{"indexed":true,"internalType":"address","name":"newOwner","type":"address"}],"name":"OwnershipTransferred","type":"event"},{"anonymous":false,"inputs":[{"indexed":true,"internalType":"bytes32","name":"trustedHeader","type":"bytes32"}],"name":"SyncRequested","type":"event"},{"anonymous":false,"inputs":[{"indexed":true,"internalType":"address","name":"implementation","type":"address"}],"name":"Upgraded","type":"event"},{"anonymous":false,"inputs":[{"indexed":true,"internalType":"bytes32","name":"trustedHeader","type":"bytes32"},{"components":[{"internalType":"bool","name":"isTransaction","type":"bool"},{"internalType":"bytes32","name":"id","type":"bytes32"},{"internalType":"bytes","name":"account","type":"bytes"}],"indexed":true,"internalType":"struct TransactionOrReceiptId[]","name":"ids","type":"tuple[]"}],"name":"VerifyRequested","type":"event"},{"anonymous":false,"inputs":[{"indexed":false,"internalType":"bytes","name":"results","type":"bytes"}],"name":"VerifyResult","type":"event"},{"inputs":[],"name":"DEFAULT_GAS_LIMIT","outputs":[{"internalType":"uint32","name":"","type":"uint32"}],"stateMutability":"view","type":"function"},{"inputs":[{"internalType":"bytes","name":"_output","type":"bytes"}],"name":"decodeResults","outputs":[{"components":[{"internalType":"bytes32","name":"id","type":"bytes32"},{"internalType":"bool","name":"result","type":"bool"}],"internalType":"struct ProofVerificationResult[]","name":"","type":"tuple[]"}],"stateMutability":"pure","type":"function"},{"inputs":[],"name":"gateway","outputs":[{"internalType":"address","name":"","type":"address"}],"stateMutability":"view","type":"function"},{"inputs":[{"internalType":"bytes","name":"_output","type":"bytes"},{"internalType":"bytes","name":"","type":"bytes"}],"name":"handleSync","outputs":[],"stateMutability":"nonpayable","type":"function"},{"inputs":[{"internalType":"bytes","name":"_output","type":"bytes"},{"internalType":"bytes","name":"","type":"bytes"}],"name":"handleVerify","outputs":[],"stateMutability":"nonpayable","type":"function"},{"inputs":[],"name":"initialize","outputs":[],"stateMutability":"nonpayable","type":"function"},{"inputs":[],"name":"latestHeader","outputs":[{"internalType":"bytes32","name":"","type":"bytes32"}],"stateMutability":"view","type":"function"},{"inputs":[],"name":"owner","outputs":[{"internalType":"address","name":"","type":"address"}],"stateMutability":"view","type":"function"},{"inputs":[],"name":"proxiableUUID","outputs":[{"internalType":"bytes32","name":"","type":"bytes32"}],"stateMutability":"view","type":"function"},{"inputs":[],"name":"renounceOwnership","outputs":[],"stateMutability":"nonpayable","type":"function"},{"inputs":[],"name":"requestSync","outputs":[],"stateMutability":"payable","type":"function"},{"inputs":[{"components":[{"internalType":"bool","name":"isTransaction","type":"bool"},{"internalType":"bytes32","name":"id","type":"bytes32"},{"internalType":"bytes","name":"account","type":"bytes"}],"internalType":"struct TransactionOrReceiptId[]","name":"ids","type":"tuple[]"}],"name":"requestVerify","outputs":[],"stateMutability":"payable","type":"function"},{"inputs":[{"internalType":"bytes32","name":"_header","type":"bytes32"}],"name":"setCheckpointHeader","outputs":[],"stateMutability":"nonpayable","type":"function"},{"inputs":[],"name":"syncFunctionId","outputs":[{"internalType":"bytes32","name":"","type":"bytes32"}],"stateMutability":"view","type":"function"},{"inputs":[{"internalType":"address","name":"newOwner","type":"address"}],"name":"transferOwnership","outputs":[],"stateMutability":"nonpayable","type":"function"},{"inputs":[{"internalType":"address","name":"_gateway","type":"address"}],"name":"updateGateway","outputs":[],"stateMutability":"nonpayable","type":"function"},{"inputs":[{"internalType":"bytes32","name":"_functionId","type":"bytes32"}],"name":"updateSyncId","outputs":[],"stateMutability":"nonpayable","type":"function"},{"inputs":[{"internalType":"bytes32","name":"_functionId","type":"bytes32"}],"name":"updateVerifyId","outputs":[],"stateMutability":"nonpayable","type":"function"},{"inputs":[{"internalType":"address","name":"newImplementation","type":"address"}],"name":"upgradeTo","outputs":[],"stateMutability":"nonpayable","type":"function"},{"inputs":[{"internalType":"address","name":"newImplementation","type":"address"},{"internalType":"bytes","name":"data","type":"bytes"}],"name":"upgradeToAndCall","outputs":[],"stateMutability":"payable","type":"function"},{"inputs":[],"name":"verifyFunctionId","outputs":[{"internalType":"bytes32","name":"","type":"bytes32"}],"stateMutability":"view","type":"function"}],"bytecode":{"object":"0x60a060405230608052610010610015565b6100d4565b600054610100900460ff16156100815760405162461bcd60e51b815260206004820152602760248201527f496e697469616c697a61626c653a20636f6e747261637420697320696e697469604482015266616c697a696e6760c81b606482015260840160405180910390fd5b60005460ff908116146100d2576000805460ff191660ff9081179091556040519081527f7f26b83ff96e1f2b6a682f133852f6798a09c465da95921460cefb38474024989060200160405180910390a15b565b60805161207f61010b600039600081816104eb0152818161057001528181610666015281816106eb01526107d5015261207f6000f3fe60806040526004361061016a5760003560e01c80637a03780a116100cb578063bba3fe8e1161007f578063d7c908fc11610059578063d7c908fc1461038f578063f2fde38b146103a2578063fd4f593d146103c257600080fd5b8063bba3fe8e1461032d578063c0346b2014610343578063d6be695a1461036357600080fd5b80638d363ad0116100b05780638d363ad0146102cf5780638da5cb5b146102ef578063b291c2d71461030d57600080fd5b80637a03780a146102b25780638129fc1c146102ba57600080fd5b806352d1902d1161012257806356e484e11161010757806356e484e11461025a578063694e6f6914610287578063715018a61461029d57600080fd5b806352d1902d146102215780635629df5b1461024457600080fd5b80632ebfd37f116101535780632ebfd37f146101ce5780633659cfe6146101ee5780634f1ef2861461020e57600080fd5b8063116191b61461016f5780632bdd271f146101ac575b600080fd5b34801561017b57600080fd5b5060c95461018f906001600160a01b031681565b6040516001600160a01b0390911681526020015b60405180910390f35b3480156101b857600080fd5b506101cc6101c7366004611891565b6103e2565b005b3480156101da57600080fd5b506101cc6101e93660046118f3565b6103ef565b3480156101fa57600080fd5b506101cc61020936600461197b565b6104e1565b6101cc61021c366004611a76565b61065c565b34801561022d57600080fd5b506102366107c8565b6040519081526020016101a3565b34801561025057600080fd5b5061023660cb5481565b34801561026657600080fd5b5061027a610275366004611ac4565b61088d565b6040516101a39190611b06565b34801561029357600080fd5b5061023660ca5481565b3480156102a957600080fd5b506101cc6108d7565b6101cc6108eb565b3480156102c657600080fd5b506101cc610a01565b3480156102db57600080fd5b506101cc6102ea3660046118f3565b610b28565b3480156102fb57600080fd5b506033546001600160a01b031661018f565b34801561031957600080fd5b506101cc610328366004611891565b610c26565b34801561033957600080fd5b5061023660cc5481565b34801561034f57600080fd5b506101cc61035e36600461197b565b610c33565b34801561036f57600080fd5b5061037a620f424081565b60405163ffffffff90911681526020016101a3565b6101cc61039d366004611b57565b610c6a565b3480156103ae57600080fd5b506101cc6103bd36600461197b565b610db3565b3480156103ce57600080fd5b506101cc6103dd366004611891565b610e40565b6103ea610e4d565b60cb55565b60c9546001600160a01b03163314158061047d575060c960009054906101000a90046001600160a01b03166001600160a01b03166305d7c1cf6040518163ffffffff1660e01b8152600401602060405180830381865afa158015610457573d6000803e3d6000fd5b505050506040513d601f19601f8201168201806040525081019061047b9190611bda565b155b156104a25760405163e74f74d560e01b81523360048201526024015b60405180910390fd5b7f5311e4917ade30f8717c536ae671c9ef3321b1ec3158a9978c939f1d59ec284284846040516104d3929190611bfe565b60405180910390a150505050565b6001600160a01b037f000000000000000000000000000000000000000000000000000000000000000016300361056e5760405162461bcd60e51b815260206004820152602c60248201527f46756e6374696f6e206d7573742062652063616c6c6564207468726f7567682060448201526b19195b1959d85d1958d85b1b60a21b6064820152608401610499565b7f00000000000000000000000000000000000000000000000000000000000000006001600160a01b03166105c97f360894a13ba1a3210667c828492db98dca3e2076cc3735a920a3ca505d382bbc546001600160a01b031690565b6001600160a01b0316146106345760405162461bcd60e51b815260206004820152602c60248201527f46756e6374696f6e206d7573742062652063616c6c6564207468726f7567682060448201526b6163746976652070726f787960a01b6064820152608401610499565b61063d81610ea7565b6040805160008082526020820190925261065991839190610eaf565b50565b6001600160a01b037f00000000000000000000000000000000000000000000000000000000000000001630036106e95760405162461bcd60e51b815260206004820152602c60248201527f46756e6374696f6e206d7573742062652063616c6c6564207468726f7567682060448201526b19195b1959d85d1958d85b1b60a21b6064820152608401610499565b7f00000000000000000000000000000000000000000000000000000000000000006001600160a01b03166107447f360894a13ba1a3210667c828492db98dca3e2076cc3735a920a3ca505d382bbc546001600160a01b031690565b6001600160a01b0316146107af5760405162461bcd60e51b815260206004820152602c60248201527f46756e6374696f6e206d7573742062652063616c6c6564207468726f7567682060448201526b6163746976652070726f787960a01b6064820152608401610499565b6107b882610ea7565b6107c482826001610eaf565b5050565b6000306001600160a01b037f000000000000000000000000000000000000000000000000000000000000000016146108685760405162461bcd60e51b815260206004820152603860248201527f555550535570677261646561626c653a206d757374206e6f742062652063616c60448201527f6c6564207468726f7567682064656c656761746563616c6c00000000000000006064820152608401610499565b507f360894a13ba1a3210667c828492db98dca3e2076cc3735a920a3ca505d382bbc90565b60606108ce83838080601f01602080910402602001604051908101604052809392919081815260200183838082843760009201919091525061105492505050565b90505b92915050565b6108df610e4d565b6108e96000611133565b565b6108f3611192565b60c95460ca5460cc546040805160208101929092526060936001600160a01b03169263b3f04fdf9234920160408051601f19818403018152908290527fffffffff0000000000000000000000000000000000000000000000000000000060e086901b16825261098e929187907f8d363ad00000000000000000000000000000000000000000000000000000000090620f424090600401611c7d565b60206040518083038185885af11580156109ac573d6000803e3d6000fd5b50505050506040513d601f19601f820116820180604052508101906109d19190611ce9565b5060cc546040517fbc7802dd01d060a46b393cebd91b8a39c249a47db8f922fd5f42099dadd4996c90600090a250565b600054610100900460ff1615808015610a215750600054600160ff909116105b80610a3b5750303b158015610a3b575060005460ff166001145b610aad5760405162461bcd60e51b815260206004820152602e60248201527f496e697469616c697a61626c653a20636f6e747261637420697320616c72656160448201527f647920696e697469616c697a65640000000000000000000000000000000000006064820152608401610499565b6000805460ff191660011790558015610ad0576000805461ff0019166101001790555b610ad8611253565b610ae06112c6565b8015610659576000805461ff0019169055604051600181527f7f26b83ff96e1f2b6a682f133852f6798a09c465da95921460cefb38474024989060200160405180910390a150565b60c9546001600160a01b031633141580610bb6575060c960009054906101000a90046001600160a01b03166001600160a01b03166305d7c1cf6040518163ffffffff1660e01b8152600401602060405180830381865afa158015610b90573d6000803e3d6000fd5b505050506040513d601f19601f82011682018060405250810190610bb49190611bda565b155b15610bd65760405163e74f74d560e01b8152336004820152602401610499565b6000610be484860186611891565b60cc8190556040518181529091507fcbd408984914065fc31971bedb3cfb58a26f657e00781d55dad5dac5d0ff50c99060200160405180910390a15050505050565b610c2e610e4d565b60ca55565b610c3b610e4d565b60c9805473ffffffffffffffffffffffffffffffffffffffff19166001600160a01b0392909216919091179055565b610c72611192565b60cc54606090600090610c8d610c888587611d02565b611331565b604051602001610c9e929190611dd3565b60408051601f198184030181529082905260c95460cb547fb3f04fdf0000000000000000000000000000000000000000000000000000000084529193506001600160a01b03169163b3f04fdf913491610d259190869088907f2ebfd37f0000000000000000000000000000000000000000000000000000000090620f424090600401611c7d565b60206040518083038185885af1158015610d43573d6000803e3d6000fd5b50505050506040513d601f19601f82011682018060405250810190610d689190611ce9565b508383604051610d79929190611df9565b60405190819003812060cc5490917fa4dd48505d62b0b473f0d1ab4fff5474d7b864f5f8b0ac9bd0e4ff184097b05b90600090a350505050565b610dbb610e4d565b6001600160a01b038116610e375760405162461bcd60e51b815260206004820152602660248201527f4f776e61626c653a206e6577206f776e657220697320746865207a65726f206160448201527f64647265737300000000000000000000000000000000000000000000000000006064820152608401610499565b61065981611133565b610e48610e4d565b60cc55565b6033546001600160a01b031633146108e95760405162461bcd60e51b815260206004820181905260248201527f4f776e61626c653a2063616c6c6572206973206e6f7420746865206f776e65726044820152606401610499565b610659610e4d565b7f4910fdfa16fed3260ed0e7147f7cc6da11a60208b5b9406d12a635614ffd91435460ff1615610ee757610ee283611461565b505050565b826001600160a01b03166352d1902d6040518163ffffffff1660e01b8152600401602060405180830381865afa925050508015610f41575060408051601f3d908101601f19168201909252610f3e91810190611ce9565b60015b610fb35760405162461bcd60e51b815260206004820152602e60248201527f45524331393637557067726164653a206e657720696d706c656d656e7461746960448201527f6f6e206973206e6f7420555550530000000000000000000000000000000000006064820152608401610499565b7f360894a13ba1a3210667c828492db98dca3e2076cc3735a920a3ca505d382bbc81146110485760405162461bcd60e51b815260206004820152602960248201527f45524331393637557067726164653a20756e737570706f727465642070726f7860448201527f6961626c655555494400000000000000000000000000000000000000000000006064820152608401610499565b50610ee283838361152c565b6060600060219050600081845161106b9190611ec7565b905060008167ffffffffffffffff81111561108857611088611996565b6040519080825280602002602001820160405280156110cd57816020015b60408051808201909152600080825260208201528152602001906001900390816110a65790505b50905060606000805b84811015611127576110e9888388611557565b90935091506110f78361162e565b84828151811061110957611109611ee9565b6020026020010181905250808061111f90611eff565b9150506110d6565b50919695505050505050565b603380546001600160a01b0383811673ffffffffffffffffffffffffffffffffffffffff19831681179093556040519116919082907f8be0079c531659141344cd1fd0a4f28419497f9722a3daafe3b4186f6b6457e090600090a35050565b60c9546001600160a01b03166111d4576040517f516f125900000000000000000000000000000000000000000000000000000000815260040160405180910390fd5b60ca5415806111e3575060cb54155b1561121a576040517fc85781e300000000000000000000000000000000000000000000000000000000815260040160405180910390fd5b60cc546108e9576040517f40a70d0200000000000000000000000000000000000000000000000000000000815260040160405180910390fd5b600054610100900460ff166112be5760405162461bcd60e51b815260206004820152602b60248201527f496e697469616c697a61626c653a20636f6e7472616374206973206e6f74206960448201526a6e697469616c697a696e6760a81b6064820152608401610499565b6108e961169a565b600054610100900460ff166108e95760405162461bcd60e51b815260206004820152602b60248201527f496e697469616c697a61626c653a20636f6e7472616374206973206e6f74206960448201526a6e697469616c697a696e6760a81b6064820152608401610499565b60608060005b835181101561145a5780156113ca578184828151811061135957611359611ee9565b60200260200101516000015185838151811061137757611377611ee9565b60200260200101516020015186848151811061139557611395611ee9565b6020026020010151604001516040516020016113b49493929190611f18565b6040516020818303038152906040529150611448565b8381815181106113dc576113dc611ee9565b6020026020010151600001518482815181106113fa576113fa611ee9565b60200260200101516020015185838151811061141857611418611ee9565b60200260200101516040015160405160200161143693929190611f5e565b60405160208183030381529060405291505b8061145281611eff565b915050611337565b5092915050565b6001600160a01b0381163b6114de5760405162461bcd60e51b815260206004820152602d60248201527f455243313936373a206e657720696d706c656d656e746174696f6e206973206e60448201527f6f74206120636f6e7472616374000000000000000000000000000000000000006064820152608401610499565b7f360894a13ba1a3210667c828492db98dca3e2076cc3735a920a3ca505d382bbc805473ffffffffffffffffffffffffffffffffffffffff19166001600160a01b0392909216919091179055565b6115358361170e565b6000825111806115425750805b15610ee257611551838361174e565b50505050565b606060006115658385611f90565b905084518111156115b85760405162461bcd60e51b815260206004820152601360248201527f42797465733a204f7574206f662072616e6765000000000000000000000000006044820152606401610499565b8267ffffffffffffffff8111156115d1576115d1611996565b6040519080825280601f01601f1916602001820160405280156115fb576020820181803683370190505b5091508360208601016020830160005b8581101561162357828101518282015260200161160b565b505050935093915050565b60408051808201909152600080825260208201526060600061165284826020611557565b8151919350915061166c9083016020908101908401611ce9565b835261167a84826001611557565b909250905061168882611fa3565b60f81c15156020840152509092915050565b600054610100900460ff166117055760405162461bcd60e51b815260206004820152602b60248201527f496e697469616c697a61626c653a20636f6e7472616374206973206e6f74206960448201526a6e697469616c697a696e6760a81b6064820152608401610499565b6108e933611133565b61171781611461565b6040516001600160a01b038216907fbc7cd75a20ee27fd9adebab32041f755214dbc6bffa90cc0225b39da2e5c2d3b90600090a250565b60606108ce8383604051806060016040528060278152602001612023602791396060600080856001600160a01b03168560405161178b9190611ff3565b600060405180830381855af49150503d80600081146117c6576040519150601f19603f3d011682016040523d82523d6000602084013e6117cb565b606091505b50915091506117dc868383876117e6565b9695505050505050565b6060831561185557825160000361184e576001600160a01b0385163b61184e5760405162461bcd60e51b815260206004820152601d60248201527f416464726573733a2063616c6c20746f206e6f6e2d636f6e74726163740000006044820152606401610499565b508161185f565b61185f8383611867565b949350505050565b8151156118775781518083602001fd5b8060405162461bcd60e51b8152600401610499919061200f565b6000602082840312156118a357600080fd5b5035919050565b60008083601f8401126118bc57600080fd5b50813567ffffffffffffffff8111156118d457600080fd5b6020830191508360208285010111156118ec57600080fd5b9250929050565b6000806000806040858703121561190957600080fd5b843567ffffffffffffffff8082111561192157600080fd5b61192d888389016118aa565b9096509450602087013591508082111561194657600080fd5b50611953878288016118aa565b95989497509550505050565b80356001600160a01b038116811461197657600080fd5b919050565b60006020828403121561198d57600080fd5b6108ce8261195f565b634e487b7160e01b600052604160045260246000fd5b6040516060810167ffffffffffffffff811182821017156119cf576119cf611996565b60405290565b604051601f8201601f1916810167ffffffffffffffff811182821017156119fe576119fe611996565b604052919050565b600082601f830112611a1757600080fd5b813567ffffffffffffffff811115611a3157611a31611996565b611a44601f8201601f19166020016119d5565b818152846020838601011115611a5957600080fd5b816020850160208301376000918101602001919091529392505050565b60008060408385031215611a8957600080fd5b611a928361195f565b9150602083013567ffffffffffffffff811115611aae57600080fd5b611aba85828601611a06565b9150509250929050565b60008060208385031215611ad757600080fd5b823567ffffffffffffffff811115611aee57600080fd5b611afa858286016118aa565b90969095509350505050565b602080825282518282018190526000919060409081850190868401855b82811015611b4a578151805185528601511515868501529284019290850190600101611b23565b5091979650505050505050565b60008060208385031215611b6a57600080fd5b823567ffffffffffffffff80821115611b8257600080fd5b818501915085601f830112611b9657600080fd5b813581811115611ba557600080fd5b8660208260051b8501011115611bba57600080fd5b60209290920196919550909350505050565b801515811461065957600080fd5b600060208284031215611bec57600080fd5b8151611bf781611bcc565b9392505050565b60208152816020820152818360408301376000818301604090810191909152601f909201601f19160101919050565b60005b83811015611c48578181015183820152602001611c30565b50506000910152565b60008151808452611c69816020860160208601611c2d565b601f01601f19169290920160200192915050565b85815260a060208201526000611c9660a0830187611c51565b8281036040840152611ca88187611c51565b9150507fffffffff000000000000000000000000000000000000000000000000000000008416606083015263ffffffff831660808301529695505050505050565b600060208284031215611cfb57600080fd5b5051919050565b600067ffffffffffffffff80841115611d1d57611d1d611996565b8360051b6020611d2e8183016119d5565b868152918501918181019036841115611d4657600080fd5b865b84811015611dc757803586811115611d605760008081fd5b88016060368290031215611d745760008081fd5b611d7c6119ac565b8135611d8781611bcc565b8152818601358682015260408083013589811115611da55760008081fd5b611db136828601611a06565b9183019190915250845250918301918301611d48565b50979650505050505050565b82815260008251611deb816020850160208701611c2d565b919091016020019392505050565b60008184825b85811015611ea6578135605e19883603018112611e1b57600080fd5b87018035611e2881611bcc565b151584526020818101358186015260408083013536849003601e19018112611e4f57600080fd5b90920181810192903567ffffffffffffffff811115611e6d57600080fd5b803603841315611e7c57600080fd5b8084838901376000878201830152601f01601f191690950190940193929092019150600101611dff565b509095945050505050565b634e487b7160e01b600052601160045260246000fd5b600082611ee457634e487b7160e01b600052601260045260246000fd5b500490565b634e487b7160e01b600052603260045260246000fd5b600060018201611f1157611f11611eb1565b5060010190565b60008551611f2a818460208a01611c2d565b808301905085151560f81b81528460018201528351611f50816021840160208801611c2d565b016021019695505050505050565b83151560f81b815282600182015260008251611f81816021850160208701611c2d565b91909101602101949350505050565b808201808211156108d1576108d1611eb1565b6000815160208301517fff0000000000000000000000000000000000000000000000000000000000000080821693506001831015611feb5780818460010360031b1b83161693505b505050919050565b60008251612005818460208701611c2d565b9190910192915050565b6020815260006108ce6020830184611c5156fe416464726573733a206c6f772d6c6576656c2064656c65676174652063616c6c206661696c6564a26469706673582212208e0f7d8d7c3a6f740e05fa148c01b145b4fe1cdb98ec75190c722452bc58248e64736f6c63430008130033","linkReferences":{}},"methodIdentifiers":{"DEFAULT_GAS_LIMIT()":"d6be695a","decodeResults(bytes)":"56e484e1","gateway()":"116191b6","handleSync(bytes,bytes)":"8d363ad0","handleVerify(bytes,bytes)":"2ebfd37f","initialize()":"8129fc1c","latestHeader()":"bba3fe8e","owner()":"8da5cb5b","proxiableUUID()":"52d1902d","renounceOwnership()":"715018a6","requestSync()":"7a03780a","requestVerify((bool,bytes32,bytes)[])":"d7c908fc","setCheckpointHeader(bytes32)":"fd4f593d","syncFunctionId()":"694e6f69","transferOwnership(address)":"f2fde38b","updateGateway(address)":"c0346b20","updateSyncId(bytes32)":"b291c2d7","updateVerifyId(bytes32)":"2bdd271f","upgradeTo(address)":"3659cfe6","upgradeToAndCall(address,bytes)":"4f1ef286","verifyFunctionId()":"5629df5b"},"id":47}